:020000040800F2
:1000000000E80120D9010008E32F000815260008A8
:10001000E12F0008950F0008F533000800000000EC
:10002000000000000000000000000000D5300008C3
:100030004910000800000000E52F0008D730000834
:10004000F3010008F3010008F3010008F3010008C0
:10005000F3010008F3010008F3010008F3010008B0
:10006000F3010008F3010008F3010008F3010008A0
:10007000F3010008F3010008F3010008F301000890
:10008000F3010008F3010008F3010008F301000880
:10009000F3010008F3010008F3010008F301000870
:1000A000F3010008F3010008F3010008F301000860
:1000B000F3010008F3010008F3010008F301000850
:1000C000F3010008F3010008F3010008F301000840
:1000D000F3010008F3010008F3010008F301000830
:1000E000F3010008F3010008F3010008F301000820
:1000F000F3010008F3010008F3010008F301000810
:10010000F3010008F3010008F3010008F3010008FF
:10011000F3010008F3010008F3010008F3010008EF
:10012000990F0008F3010008F3010008F30100082B
:10013000F30100080000000000000000F3010008C7
:10014000F3010008F3010008F3010008F3010008BF
:10015000F3010008F3010008F3010008F3010008AF
:10016000F3010008F3010008F3010008F30100089F
:10017000F3010008F3010008F3010008000000008B
:1001800000000000F3010008000000000000000073
:10019000F30100080000000000000000F301000867
:1001A000000000000000000000000000F301000853
:1001B000F3010008F3010008F3010008F30100084F
:1001C000F3010008DFF80CD000F056FB00480047B0
:1001D000D13F000800E80120064880470648004754
:1001E000FEE7FEE7FEE7FEE7FEE7FEE7FEE7FEE7E7
:1001F000FEE7FEE77D310008C50100082DE9F05F4C
:100200000546002092469B46884606468146402485
:100210001BE0284641464746224600F042F9534635
:100220005A46C01A914110D311461846224600F092
:1002300029F92D1A67EB01084F46224601200021BB
:1002400000F020F917EB00094E41201EA4F1010433
:10025000DFDC484631462A464346BDE8F09F2DE99B
:10026000F0410024061B254671F1000605DA012441
:100270000027D0EB070067EB0101161E73F10006A3
:1002800005DA0027D2EB0702012567EB0303FFF72E
:10029000B5FF86460E4617469C46AC4204D0002564
:1002A000D0EB050E65EB010624B10020D2EB000770
:1002B00060EB030C704631463A466346BDE8F08178
:1002C000D2B201E000F8012B491EFBD27047002298
:1002D000F6E710B513460A4604461946FFF7F0FF45
:1002E000204610BD2DE9FE4F81EA030404F00044CE
:1002F00021F0004100944FF0000B23F0004350EA3E
:1003000001045ED052EA03045BD0C3F30A54C1F384
:100310000A552C44A4F2F3340194A0FB0254C1F317
:10032000130141F48011C3F3130343F4801301FB61
:10033000024400FB034E840A970A44EA815447EAC8
:100340008357A4FB076802958D0A05FB07854FEAD2
:10035000932C04FB0C542705029D4FEA065847EAEC
:100360001637B5EB08056EEB070C870E920E47EAC1
:10037000811742EA8312A7FB0201B6EB0B0164EB83
:1003800000042B0D43EA0C335E1844EB1C50DA4694
:100390005146E7FB0201C5F313044FEA0B3343EA6E
:1003A00014534FEA0432019C43EA0603A4F10C04FF
:1003B0000294009CCDE900B400F0C9F803B0BDE898
:1003C000F08F00200146F9E7C1F30A5210B5C1F3DE
:1003D000130140F2FF3341F480119A4201DA002008
:1003E00010BD40F233439A42A2F2334203DC524240
:1003F00000F057F810BD904010BD00F0004230F002
:1004000000400AD0C10D01F56071C0F3160042EA48
:100410000151C20840071143704700200146704750
:1004200001F0004330B421F0004150EA010206D04F
:100430000A0DA2F56072C1F31301002A02DC30BC80
:1004400000207047440F44EAC104C100E01830BCEA
:1004500000EBC25000F035B830B50B460146002025
:100460002022012409E021FA02F59D4205D303FA76
:1004700002F5491B04FA02F52844151EA2F10102F7
:10048000F1DC30BD202A04DB203A00FA02F1002022
:1004900070479140C2F1200320FA03F319439040C2
:1004A0007047202A04DB203A21FA02F0002170472D
:1004B00021FA02F3D040C2F12002914008431946CC
:1004C00070470029A8BF7047401C490008BF20F0B2
:1004D0000100704710B4B0FA80FC00FA0CF050EA4A
:1004E000010404BF10BC704749B1CCF1200421FACB
:1004F00004F411FA0CF118BF012121430843A3EBC6
:100500000C01CB1D4FEA00614FEA102042BF0020D2
:1005100010BC704700EBC35010440029A4BF10BCAE
:100520007047401C490008BF20F0010010BC704714
:1005300010B5141E73F1000408DA401C41F10001EB
:1005400092185B411A4301D120F0010010BD2DE942
:10055000F04D92469B4611B1B1FA81F202E0B0FA39
:1005600080F220329046FFF78DFF04460F4640EAA6
:100570000A0041EA0B0153465A46084313D011467C
:1005800053EA010019D0C8F140025046FFF789FF35
:1005900005460E46504659464246FFF773FF08434C
:1005A00005D0012004E020463946BDE8F08D00204A
:1005B000054346EAE0762C4337430A986305E40A8C
:1005C000A0EB08000022FD0A44EA47540A3002D595
:1005D00000200146E9E7010510196941DDE90845F8
:1005E00000196941BDE8F04DA2E72DE9FE4F8046B4
:1005F00081EA0300C00F0C46009021F0004123F077
:100600000045B8EB0200A94105D24046214690467C
:100610001C460B46024623F00040104347D0270DEE
:10062000C7F30A00C3F30A510290401A0190402810
:100630006BDAC3F3130040F4801B0098924620B19C
:100640000023D2EB030A63EB0B0B01985946C0F170
:1006500040025046FFF716FF06460D4650465946E3
:10066000019A00F01BF910EB08006141002487EAB1
:10067000115284EAE7731A4340D0009A62B3019A98
:10068000012A4FEA075215DC001B61EB02014FF013
:10069000004202EA0752CDE90042001C41F58011F8
:1006A00032462B46FFF753FF03B0BDE8F08F4046BC
:1006B0002146F9E7001B61EB0201001C41F58013A4
:1006C00000185B412018A2F5001747EB030140EA30
:1006D000D570B6196D4111E06D084FEA360645EA4E
:1006E000C0754FEA0752001B61EB0201001C41F587
:1006F000801149084FEA30000019514132462B461B
:1007000003B0BDE8F04FFFF713BF0098012240008F
:100710000023D0EB020263EBE073009821464FEA1E
:10072000E074B8EB000061EB0401E9E783F00043FB
:100730005BE781F0004158E72DE9F04D81EA0304C1
:1007400004F0004B21F0004514464FF0000A23F05E
:10075000004150EA050220D054EA01021DD0C5F341
:100760000A570246C5F31303C1F31300C1F30A5637
:1007700040F4801543F48013A7EB0608101BD646FF
:1007800008F2FD3873EB050002D308F1010801E01F
:1007900092185B41B8F1000F03DA00200146BDE872
:1007A000F08D00204FF48011064684460EE0171BA2
:1007B00073EB050705D3121B63EB050306434CEAF5
:1007C000010C49084FEA300092185B4150EA0107DA
:1007D000EDD152EA030012D082EA040083EA050157
:1007E000084305D0101BAB4106D20122002306E0CE
:1007F00000224FF0004302E06FF0010253101AEBA9
:1008000006004CEB085110EB0A0041EB0B01BDE870
:10081000F04DFFF78DBEC1F30A52C1F3130140F250
:10082000FF3341F480119A4202DA002001467047FA
:1008300040F233439A42A2F2334202DC5242FFF7C3
:1008400030BEFFF71FBE000030B5041E71F100047A
:1008500004DB4FF00044404264EB0101141E73F1CD
:10086000000405DB1C464FF00043524263EB0403D7
:10087000994208BF904230BD064C074D06E0E06843
:1008800040F0010394E8070098471034AC42F6D3D7
:10089000FFF79CFC444B0008644B0008202A06DB51
:1008A000CB17203A41FA02F043EAE07306E041FA3E
:1008B00002F3D040C2F1200291400843194670472C
:1008C0002DE9F04F8EB0476890F800800C9747886C
:1008D0008668B3FBF8F3781E019006EB4009002010
:1008E000B0EB530F03F0010BCDF8208002967AD0C5
:1008F0005C084FEA48030793BB0807F0030500971D
:1009000027F003074744A0EB4800B446CDF82CB0CD
:1009100004950397059006930598174631F8022B26
:10092000013029F8022BF9D30CEB48020D976BB379
:10093000DDF830B04FF0000E1F464FF0000A604661
:100940000994CDF828C000BFDBF80040D0F8008043
:100950001568DBF804604368D2F804C028FB04A8DB
:1009600025FB04E50BF1080B083023FB068A2CFB62
:10097000065E013F02F10802E6D1DDF828C0039AC5
:10098000DDE908840CEB420207E000BFDDF830B07F
:100990004FF0000A60464FF0000E049F67B100BFA1
:1009A0003BF9023B30F9026B32F9025B26FB03AAEA
:1009B000013F25FB03EEF3D10798013C0CEB400C03
:1009C0004FEAEA3000F30F000D9B18804FEAEE303B
:1009D00000F30F0003F104025880069B9CD1DDF860
:1009E0002CB0009F00E0B446BBF1000F56D00C9B2A
:1009F00027F0030003EB40004FEA970E07F0030ACD
:100A00000A90181D0990CDF834A000BF404600BFE1
:100A100031F8023B013829F8023BF9D1BEF1000F51
:100A20004FF00000CDF82CB01ED0099BDDF83080CF
:100A3000F3467446E2466746D8F800603D6803F125
:100A4000040853F808CBD7F804E025FB0600083764
:100A5000013C2EFB0C00EFD10A9BD446DDF8208030
:100A6000DDF834A0DE4601E00C9B6746BAF1000FCA
:100A700008D0544633F9026B37F9025B013C25FB81
:100A80000600F7D1C01300F30F00DDF82CB00CEB1B
:100A9000480CBBF1010B22F8020BB7D1DDE90132A2
:100AA0000020B0EB930F0DD0980800BFDCF80010C9
:100AB00001381160DCF804100CF1080C516002F1EF
:100AC0000802F3D113F0030006D000BF3CF8021B6C
:100AD000013822F8021BF9D10EB0BDE8F08FF0B555
:100AE00081B0079E1446B6FBF2F202FB14620AB113
:100AF000FE200EE0069F05464180436088196FF096
:100B0000010101EB40013846FFF7E1FB0020AF6037
:100B10002C7040B201B0F0BD10B54FF0000CBCEB32
:100B2000930F12D0C1EA014C4FEA930E0468BEF154
:100B3000010E94FA1CF41460446800F1080094FA61
:100B40001CF4546002F10802F0D113F0030308BF53
:100B500010BD00BF30F9024B013B94FA11F422F8AA
:100B6000024BF7D110BD0000B0B50023B3EB920FDC
:100B700034D09FED240A4FEA920C00BFB0F9003048
:100B8000B0F902E001EE103AB0F90440B0F90650B5
:100B9000B8EEC11A21EE001A81ED001A01EE10EA3A
:100BA000B8EEC11A21EE001A81ED011A01EE104AC9
:100BB000B8EEC11A21EE001A81ED021A01EE105AA8
:100BC000B8EEC11A21EE001A01F11003083081EDD0
:100BD000031ABCF1010C1946D0D1194612F00302D8
:100BE00008BFB0BD9FED070A30F9023B013A01EEA4
:100BF000103AB8EEC11A21EE001AA1EC011AF3D195
:100C0000B0BD00BF000000382DE9F0410023904640
:100C10000A46B3EB910F12D0940822F0030C002384
:100C20000021064637687568C7FBC731C5FBC5316B
:100C3000013C06F10806F5D100EB4C0000E0002174
:100C400012F0030508D000BF30F9027B7F43DB19A7
:100C500041F10001013DF7D118460023FFF7FFFAEB
:100C6000C00B40EA414000F30F0000B24146BDE82E
:100C7000F04100F049B800002DE9F041DDF818C05E
:100C80000024B4EB9C0FC2F10F0E28D04FEA9C0257
:100C90004FFA8EF80568466815FB21F711FB05F53C
:100CA00016FB21F411FB06F647FA08F745FA08F59A
:100CB00044FA08F446FA08F607F30F0705F30F05A0
:100CC00004F30F0406F30F06C5EA0745C6EA044419
:100CD00008301D605C60013A03F10803DAD11CF0B2
:100CE000030208BFBDE8F0815FFA8EF430F9027BA1
:100CF000013A01FB07F747FA04F707F30F0723F858
:100D0000027BF3D1BDE8F081B0B501285DDBB0FA1C
:100D100080F3A3F1110C5FEACC7218BFA3F1120C9F
:100D200000FA0CFE0FFA8EF200EE102A9FED291A3F
:100D30004EF34E03B8EEC00A20EE010A45F6DF106E
:100D400010EE102AC5F63770A0EB62009FED220A64
:100D500001EE100A21EE000ABDEEC00A10EE100AE4
:100D6000020400B2D213424312FB23F24FF4405468
:100D7000A4EBE23250430022CFF6FC7202EAC0003C
:100D80000514C013684310FB23F0A4EBE030684364
:100D900002EAC0000214C013504310FB23F0A4EB7E
:100DA000E0305043C0006FF0030202EA204010FB25
:100DB0000EF080006FF0010202EA20400CEBDC72C2
:100DC000521040FA02F2002001E0FF20002240B25F
:100DD0000A80B0BD000000380000804610B5014612
:100DE000806B026C12F0500F05D0026CD20626D533
:100DF00000F005FA10BD016C41F400710164016856
:100E00008A6812F0405F17D1027EAAB9CA6A12F44A
:100E1000700F02D08A6852050ED44A6822F0200270
:100E20004A60016C21F480710164016CC90403D42F
:100E3000016C41F00101016400F0BCF910BD806B50
:100E4000C26CBDE810400846104710B5806B4021C9
:100E50000164416C41F00401416400F0D0F910BD1F
:100E600010B5806B00F0CAF910BD0000464910B5FE
:100E70004A6822F440324A604A6843681A434A602A
:100E800001684A6822F480724A6001684A6803690E
:100E900042EA03224A6001684A6822F040724A60CE
:100EA00001684A6883681A434A6001688A6822F4C4
:100EB00000628A6001688A68C3681A438A60816A2E
:100EC0006FF07062D14201688A6822F070628A60B5
:100ED00001688A680CD0836A1A438A6001688A684C
:100EE00022F040528A6001688A68C36A1A4301E0AE
:100EF00022F040528A6001688A6822F002028A6009
:100F000001688A68037E42EA43028A6090F82010F2
:100F1000002901684A680FD042F400624A60016803
:100F20004A6822F460424A6001684A68174C436A82
:100F300004EB43331A4301E022F400624A60016883
:100F4000CA6A22F47002CA620168CA6A838B104CB2
:100F500004EB03531A43CA6201688A6822F40072E0
:100F60008A6001688A6890F8303042EA43228A60D9
:100F700001688A6822F480628A6001688A68406930
:100F800042EA8020886010BD0023014000E0FFFF9E
:100F90000000F0FFFEE70000014800F0B3BA0000D7
:100FA000C8E0012001681823CAB2103AB2FBF3F27C
:100FB000054B6FF30901032A9B5CC36500D9091D2A
:100FC0008165084670470000244B000810B50146B3
:100FD00000208B698A6A4FF0C07453B1B3F5005F8B
:100FE00015D072B1012A0CD0022A0AD0032A09D1E5
:100FF00004E01AB1012A06D0022A03D1C96AC90144
:1010000000D5012010BDC96AA142FAD010BD002A46
:10101000F7D0012AF2D0022AF3D0032AF3D010BD70
:1010200030B50468256825F4802525600468636070
:101030008368402B036803D099600068C26030BDAC
:101040009A600068C16030BD704772B6FEE700006C
:1010500078B50024009490F83C20012A19D0012290
:1010600080F83C200A6807230568092A13D9EE682E
:101070000A3A02EB420293409E43EE600B788A6884
:101080000A3B03EB43039A400368DD682A43DA60B6
:1010900010E0022078BD2E6902EB420293409E438D
:1010A0002E610B788A6803EB43039A4003681D693D
:1010B0002A431A614A681F23072A13D205686E6BF8
:1010C000521E02EB820293409E436E630A8893B2E3
:1010D0000A79521E02EB820293400268556B2B4341
:1010E000536327E005680D2A12D22E6BD21F02EB44
:1010F000820293409E432E630B790A88DB1F92B2D3
:1011000003EB83039A4003681D6B2A431A6311E0C3
:10111000EE6A0D3A02EB820293409E43EE620B7937
:101120000A880D3B92B203EB83039A400368DD6AA1
:101130002A43DA621B4B0568194A9D420AD10D68A1
:10114000122D07D1556825F400055560556845F402
:101150008005556005689D421DD1134D0B68AB425B
:1011600001D0112B17D1536823F4800353605368C7
:1011700043F4000353600968A9420CD10B490C4A9F
:101180000968B1FBF2F101EB8101490000E0491E61
:1011900000910029FBD180F83C40002078BD000080
:1011A0000023014000200140120000107C000020BC
:1011B00040420F000D4810B5027801214FF4A054B1
:1011C00062B1002202704170094800F027F9094914
:1011D0002246BDE81040064800F088B80170417012
:1011E000034800F01BF922460349F2E728000020DB
:1011F00080E0012092280020920000207047704774
:1012000070B504004FF0000503D0206C002610B12B
:1012100007E0012070BD204600F01CF8666484F8E9
:101220003C60206CC00610D4206C20F4885040F044
:10123000020020642046FFF719FE6664206C20F04F
:10124000020040F00100206400E0012584F83C60C9
:10125000284670BD70B586B0064614216846FFF773
:1012600036F81D493068884234D11C480025016891
:1012700041F480710160006800F4807005901748A7
:101280001438016841F0010101600068694600F00E
:1012900001000590012000900320CDE901051048D0
:1012A00000F0B4FA104C0F48C4E900050015A56021
:1012B000C4E90350400060618000A0614011C4E9AE
:1012C00007052046656200F0EDF908B1FFF7BDFEA5
:1012D000B463A66306B070BD0020014044380240EC
:1012E0000000024010640240C8E00120F8B50E463C
:1012F00000210446009190F83C00012807D001200D
:1013000084F83C0020688368DB0702D011E00220EB
:10131000F8BD836843F0010383603748374B0068AA
:10132000B0FBF3F000EB400000E0401E009000280E
:10133000FBD120688368DB075CD0236C40F2016539
:10134000AB4343F4807323644068400505D5206CAB
:1013500020F4005040F480502064206CC00404D578
:10136000606C20F00600606400E0616484F83C106A
:10137000A16B2448224DC863A16B23480864A16B6C
:101380002248C86421686FF0220008602068416824
:1013900041F0806141602068816841F48071816022
:1013A0002168134632464C31A06B00F0E5F96868BD
:1013B0001749C006206806D088421BD1816811F009
:1013C000405F13D016E08842F8D0124A904203D111
:1013D000D1F80423D206F1D00F4A90420AD1D1F8B5
:1013E000041301F01F011029E8D303E0816841F0E4
:1013F000804181600020F8BD7C00002040420F0049
:1014000000230140DD0D0008610E00084B0E0008AE
:1014100000200140002101400022014010B5044697
:10142000002094F83C1001290CD0012184F83C10D4
:1014300021688A6822F001028A6021688A68D207DE
:1014400002D013E0022010BD886820F4807088600C
:10145000A06B00F00FF821684A6822F080624A60B1
:10146000216C21F4885141F001012164002184F8AC
:101470003C1010BD2DE9F0410446876D00F0A0FA44
:10148000064694F835000025022806D080206065C5
:1014900084F834500120BDE8F0812068016821F013
:1014A000160101602068416921F080014161206CD2
:1014B00008B9A06C20B12068016821F00801016022
:1014C0002068016821F0010101600BE000F078FA6A
:1014D000801B052806D92020606504F8345F0320AE
:1014E0006070D8E720680068C007EFD194F85C10FE
:1014F0003F208840B86004F8345F0120607000200D
:10150000C9E700002DE9F84304464FF00009CDF883
:10151000009063484FF41651A56D0068B0FBF1F7D9
:101520002E6894F85C10082000FA01F131420FD0C7
:1015300021680A6852070BD50A6822F004020A6083
:1015400094F85C108840A860606D40F00100606510
:1015500094F85C104FF0010808FA01F0304208D00E
:1015600021684969090604D5A860606D40F0020051
:10157000606594F85C1004208840304208D02168EF
:101580000968890704D5A860606D40F004006065B3
:1015900094F85C1010208840304218D02168096807
:1015A000090714D5A86020680168490304D50068BC
:1015B000000308D5A16C07E00168C90503D40168E0
:1015C00021F008010160216C09B12046884794F898
:1015D0005C1020208840304231D021680968C9065B
:1015E0002DD5A86094F8350005282068016806D03C
:1015F000490347D5006800031DD4616C1CE021F04D
:10160000160101602068416921F080014161206C70
:1016100008B9A06C20B12068016821F008010160C0
:1016200094F85C103F208840A86084F8349084F8D7
:101630003580216D1FE0E16B09B120468847606D60
:1016400000282BD0606DC00714D0052084F8350029
:101650002068016821F0010101600098401C0090A1
:10166000B84203D820680068C007F6D184F83490E7
:1016700084F83580E16C002910D001B02046BDE827
:10168000F04308470168C905D5D4016821F010016D
:10169000016084F8349084F83580CCE7BDE8F883A5
:1016A0007C0000202DE9F041044600F089F906464F
:1016B0005CB1002584F83450022084F8350020689D
:1016C000016821F0010101600DE00120BDE8F08119
:1016D00000F076F9801B052805D9202060650320DD
:1016E00084F83500F2E720680068C007F0D122686E
:1016F000116820480140D4E901031843D4E90336B6
:101700003343184363691843A3691843E3691843D3
:10171000236A18430843616A042903D1D4E90B13EF
:1017200019430843106020684069666A20F0070189
:1017300030460E43012704280CD1A06A0643E06A14
:1017400040B12046FFF742FC20B14020606584F89C
:101750003570BAE7206846612046FFF723FC94F80D
:101760005C203F2191408160656584F835700020E0
:10177000ACE700003F8010F02DE9F0410446866D93
:1017800090F83400002501280DD0012084F83400A1
:1017900094F835700020012F07D084F8340002251A
:1017A0002846BDE8F0810220FBE7022784F8357067
:1017B00060652046FFF734FC94F85C103F208840B9
:1017C000B0602068016841F016010160206C20B112
:1017D0002068016841F0080101602068016841F05B
:1017E00001010160DCE7000070B5044600F0E8F894
:1017F0000546601C02D004480078044400F0E0F87C
:10180000401BA042FAD370BD700000202DE9F84FB4
:1018100000224FF0010803254FF00F0E0B6808FA65
:1018200002F42340A3426ED14E68012E05D0022E51
:1018300003D0112E01D0122E12D186684FEA420C2D
:1018400005FA0CF7BE43CF6807FA0CF737438760F9
:101850004668A6430C79C4F30014944034434460B2
:10186000C668570005FA07FC8C6826EA0C06BC40DF
:101870003443C4604C68022C01D0122C13D1D4081C
:1018800000EB8404A346D4F8209054074FEAD46AAE
:101890000EFA0AF629EA06090E6906FA0AF646EA77
:1018A0000906CBF8206006680C7926EA0C0604F0DD
:1018B0000304BC40344304604C68E40060D5334CFE
:1018C000266846F480462660246822F0030604F465
:1018D000804400942E4C3444A446D4F8084896071B
:1018E000370F0EFA07F6B4432A4EB04201D1002654
:1018F0001FE0294EB04201D101261AE0274EB04226
:1019000002D1022615E03BE0254EB04201D103266C
:101910000FE0244EB04201D104260AE0224EB0422C
:1019200001D1052605E0214EB04201D1062600E096
:101930000726BE402643CCF808681D4E34684F6821
:101940009C43FF0300D51C433460194E361D346898
:101950004F689C43BF0300D51C433460144E0836C7
:1019600034684F689C43FF0200D51C433460104E1E
:101970000C3634684F689C43BF0200D51C4334606A
:10198000521C102AFFF44AAFBDE8F88F44380240D9
:101990000030014000000240000402400008024004
:1019A000000C0240001002400014024000180240E7
:1019B000003C01400AB1816170470904FBE7000067
:1019C000014880687047000070000020024881686C
:1019D0000278114481607047700000200B4810B5F8
:1019E000016841F400710160016841F480610160A7
:1019F000016841F480710160032000F071F800205B
:101A000000F006F800F024F8002010BD003C024071
:101A100070B50D4D04464FF47A712878B1FBF0F0A3
:101A20000A490968B1FBF0F000F088FC48B9102CB5
:101A300007D200222146501E00F032F800206C60D0
:101A400070BD012070BD0000700000207C000020EF
:101A50000B4882B0016841F480410160006800F4E5
:101A6000804000900648001F016841F080510160ED
:101A7000006800F080500090072002B000F030B8FD
:101A800044380240002809DB00F01F020121914088
:101A90004009800000F1E020C0F80011704700000C
:101AA000F0B40E4B1B680C46C3F30223C3F10705C9
:101AB000042D00D90425191D072901D2002300E0B7
:101AC000DB1E012606FA05F1491E214099409E4081
:101AD000761E16403143F0BC01F0A6BC0CED00E0D0
:101AE000064900F0070208684FF6FF03184040EA75
:101AF0000220034A10430860704700000CED00E02C
:101B00000000FA052DE9F8431748016841F08051BB
:101B100001600068154F00F08050012600903E647F
:101B2000FFF74EFF05464FF47A78114C05E000BFF1
:101B3000FFF746FF401B40450DD86068C003F7D54E
:101B40007E64FFF73DFF0546464607E0FFF738FF96
:101B5000401BB04202D90320BDE8F88360688003CF
:101B6000F4D50020F8E700004038024000000E42A3
:101B7000007000402DE9F0470E46050065D0DFF803
:101B80001481D8F80000F7B200F00F00B04207D27D
:101B900088F80070D8F8000000F00F00B04254D16F
:101BA00028683D4C810712D5400703D5206840F4D2
:101BB000E05020602878000703D5206840F460409A
:101BC00020602068A96820F0F00008432060287891
:101BD000C0072DD0304968680839012812D0022882
:101BE00013D0032811D00968890700292DDA21684C
:101BF00021F0030101432160FFF7E2FE814641F23B
:101C0000883A0EE009688903EFE709688901ECE783
:101C1000FFF7D6FEA0EB0901514502D90320BDE82C
:101C2000F0872068696800F00C00B0EB810FEFD1FD
:101C3000D8F80010404601F00F01B14207D90770F3
:101C4000006800F00F00B04201D00120E7E72878DB
:101C5000400705D52068E96820F4E050084320607B
:101C60002878000706D52068296920F4604040EAFA
:101C7000C100206000F038F82168084AC1F3031160
:101C8000515CC8400649086006480068FFF7C0FE7E
:101C90000020C4E7003C0240083802402C4B0008FA
:101CA0007C00002074000020044805490068096891
:101CB000044AC1F38221515CC84070477C00002077
:101CC000083802403C4B0008044805490068096890
:101CD000044AC1F34231515CC84070477C00002087
:101CE000083802403C4B0008224810B5006810F04C
:101CF0000C02214815D04110042A11D01D4C241F7C
:101D0000082A0FD00C2A0CD12268236802F03F0267
:101D10005B0221D52068C0F38810A0FB010120E000
:101D2000084610BD2268236802F03F025B0205D519
:101D30002068C0F38810A0FB010104E02168C1F312
:101D40008811A1FB00010023FEF758FA2168C1F3B6
:101D50000141491C49000AE02168C1F38811A1FB37
:101D600000010023FEF74AFA2168C1F30271B0FBBB
:101D7000F1F010BD083802400024F4002DE9F84FBE
:101D80000546DFF828B30078ABF10407C007A7F1D8
:101D9000040451D0DBF800105846C1F38101012939
:101DA0000FD00168C1F38101022902D139684902CB
:101DB00007D40068C0F38100032809D138684002C5
:101DC00006D52068800337D56868002872D033E0D4
:101DD0006868B0F5803F10D0B0F5A02F206810D013
:101DE00020F480302060206820F480202060686823
:101DF000A8B1FFF7E5FD06460DE0206840F480300D
:101E0000F4E740F480202060F7E700BFFFF7D8FD3B
:101E1000801B642878D820688003F7D50CE0FFF792
:101E2000CFFD064605E000BFFFF7CAFD801B642812
:101E3000F0D820688003F7D42878DFF87492800700
:101E40004FF0000A46D5DBF80010584611F00C0F91
:101E50000FD00168C1F38101022902D1396849021A
:101E600007D50068C0F38100032809D13868400213
:101E700006D42068800715D5E86801281AD111E03A
:101E8000E868C0B10120C9F80000FFF799FD0646D7
:101E900005E000BFFFF794FD801B0228BAD8206838
:101EA0008007F7D52068296920F0F80040EAC100D2
:101EB00020600FE0F7E0C9F800A0FFF781FD0646BB
:101EC00005E000BFFFF77CFD801B02281CD82068BE
:101ED0008007F7D42878000727D5DFF8D081754828
:101EE000696908F16C0881B101210160FFF768FDA3
:101EF000064604E0FFF764FD801B022804D8D8F8EA
:101F000000008007F6D510E089E0C0F800A0FFF7D8
:101F100057FD064605E000BFFFF752FD801B022873
:101F20007DD8D8F800008007F6D42878400769D516
:101F30005E484FF0000838300068C0000BD45B48A2
:101F40003830016841F08051016000684FF00108AD
:101F500000F080500090584E3068C00511D43068B1
:101F600040F480703060FFF72BFD009006E000BF6A
:101F7000FFF726FD0099401A022850D83068C005A6
:101F8000F6D54A4EA868683601280FD00528306873
:101F900010D020F001003060306820F00400306084
:101FA000A868B8B1FFF70CFD00900FE0306840F072
:101FB0000100F4E740F004003060F7E7FFF700FDB0
:101FC0000099411A41F28830814264D83068800714
:101FD000F4D50EE0FFF7F4FC009007E0FFF7F0FC0B
:101FE0000099411A41F28830814254D83068800704
:101FF000F4D4B8F1000F05D02C483830016821F036
:1020000080510160A869A8B3DBF80010C1F3810119
:10201000022948D00228C9F860A005D000E03AE0C3
:10202000FFF7CEFC054639E0FFF7CAFC064604E0A0
:10203000FFF7C6FC801B02282DD820688001F7D44A
:10204000F5E907010843E9681C4A490802EB014128
:10205000AA6841EA82110843297C40EA0160297D8F
:1020600040EA017038600120C9F86000FFF7A8FC61
:10207000054606E015E000BFFFF7A2FC401B022862
:1020800009D820688001F7D50BE000BFFFF798FC66
:10209000401B022802D90320BDE8F88F2068800188
:1020A000F4D40020F8E70120F6E7000008380240E9
:1020B00000004742800E4742007000400000FFFFD2
:1020C00070B5040005D00025A56294F8510010B148
:1020D00006E0012070BD84F85050204600F030F832
:1020E000022084F851002068016821F0400101605D
:1020F000D4E901010843D4E903121143084361699B
:102100000843218B01F400710843E1690843216A07
:102110000843A16A084321680860A069042101EA14
:102120001040616A0843216848602068C16921F451
:102130000061C1616565012084F85100002070BD17
:102140002DE9F04186B0044614216846FEF7BFF839
:102150001F492068884238D11E480025016841F493
:1021600080410160006800F48040059019481038F3
:10217000016841F004010160016801F0040105916A
:10218000016841F0020101600068022400F00200D1
:102190000094059003260720CDE90360DFF838801E
:1021A00069464046CDE90145FFF730FB042005278D
:1021B0008DE8F10069464046FFF728FB60028DE894
:1021C000F10069460548FFF721FB06B0BDE8F08144
:1021D000003800404038024000080240000402403D
:1021E0002DE9F84F044690F8500000271D4616468A
:1021F000894601280DD04FF0010B84F850B0FFF74D
:10220000DFFB804694F85100BA46012804D002272B
:102210008EE00220BDE8F88FB9F1000F7DD0002ECE
:102220007BD0032084F85100C4F854A0C4F8309047
:10223000A686E686C4F838A0A4F83CA0A4F83EA080
:10224000C4F844A0C4F840A0A068B0F5004F04D181
:102250002068016841F480410160206801684906F6
:1022600003D4016841F040010160E068B0F5006FFF
:10227000606803D030B3012E24D040E008B1012EB5
:102280001CD1206B21680088C86006E02068816846
:10229000890709D5216B0988C160206B801C2063E8
:1022A000E08E401EE08609E0FFF78AFBA0EB080005
:1022B000A84202D3681C01D031E07DB3E08E002833
:1022C000E4D11FE0206B21680078087306E02068E5
:1022D0008168890709D5216B09780173206B401C3F
:1022E0002063E08E401EE08609E0FFF769FBA0EB6B
:1022F0000800A84202D3681C01D010E075B1E08E3E
:102300000028E4D142462946204600F06DFE08B17F
:1023100020206065A06820B107E008E0FFE7032700
:1023200006E02068C16880680090606D00B10127F8
:1023300084F851B084F850A038466BE710B5401EC1
:10234000B0F1807F01D3012010BD4FF0E024606127
:102350000F21601701F068F80020A06107202061BC
:10236000002010BD70B590F83C20012A32D0012425
:1023700080F83C40022280F83D2003685A689D683E
:1023800022F070060A6832435A60134B02689A4280
:1023900014D0B2F1804F11D0104B9A420ED0104B96
:1023A0009A420BD00F4B9A4208D00F4B9A4205D05D
:1023B0000E4B9A4202D00E4B9A4204D1496825F046
:1023C00080031943916080F83D40002180F83C1063
:1023D000084670BD022070BD0000014000040040AE
:1023E00000080040000C0040000401400040014093
:1023F0000018004010B5040003D094F83D0010B15F
:1024000007E0012010BD002084F83C00204600F0C9
:102410000DF8022084F83D00211D206800F0BCFE6C
:10242000012084F83D00002010BD000008B50068C0
:10243000B0F1804F08D10548016841F00101016009
:10244000006800F00100009008BD00004038024024
:10245000022180F83D1001688A6802F00702062A0E
:1024600003D00A6842F001020A60012180F83D10A1
:102470000020704770B5044690F83C00012817D042
:10248000012584F83C50022084F83D0020688268D1
:1024900022F0770222F47F4282600868502830D010
:1024A0000DDC20284DD005DC98B310283BD148E046
:1024B000022070BD302844D0402834D139E0602853
:1024C00028D0702806D0B0F5805F2CD0B0F5005F22
:1024D00029D10AE0CB68D1E90121206800F0C0FED3
:1024E0002068816841F0770109E0CB68D1E90121DA
:1024F000206800F0B5FE2068816841F48041816069
:1025000011E0CA684968206800F0BCFE50212068CC
:1025100007E016E0CA684968206800F0C4FE602140
:10252000206800F0A7FE84F83D50002084F83C00AD
:1025300070BDCA684968206800F0A4FE4021206888
:10254000EFE7226801461046EBE770B5040004D0BF
:1025500094F83900002510B106E0012070BD84F820
:102560003850204600F022F8242084F839002068F2
:10257000C16821F40051C160204600F0A7FE206828
:10258000016921F4904101612068416921F02A012B
:1025900041612068C16841F40051C160E5632020B9
:1025A00084F8390084F83A00002070BD10B586B078
:1025B000044614216846FDF78AFE134920688842C4
:1025C00020D112480021026842F400320260006803
:1025D00000F4003005900D481038026842F0010206
:1025E0000260006800F0010005900C2000900220BD
:1025F000CDE90101032003900720049069460448B7
:10260000FFF704F906B010BD004400404038024016
:1026100000000240FEE700002DE9FE4F9146DDE993
:102620000C629B468A46202801D32038C0B2234B37
:1026300000EB4000002103EB400001AC435C63541D
:10264000491CC9B20629F9D34FF6FF7006EB4601C3
:10265000009200EA410200EAC6034946504600F0F3
:1026600051F90025A04601275FF0000418F8050085
:1026700007FA04F108420DD0012E15D004FB069094
:1026800081B205FB06A0334680B21A46CDF800B0F1
:1026900000F038F9641CE4B2082CE7D36D1CEDB2ED
:1026A000062DE1D3BDE8FE8F09EB040081B20AEBF1
:1026B000050080B25A4600F079F8EBE7E4480008DC
:1026C0002DE9F0470E464FF4FA740746B4EB460F77
:1026D00000D90C46DFF88490012251024D4648464D
:1026E000FFF768F94FF4807A002251462846FFF739
:1026F00061F94FEA1728204601F0AAFE054600209E
:10270000F9B204E005F800802A18801C5170A0423C
:10271000F8D37000B0FBF4F1B0FBF4F704FB110840
:1027200057B1002606E0A2B20A2329460C48FFF75B
:1027300057FD761CBE42F6D31FFA88F20A232946BB
:102740000748FFF74DFD012251464846FFF732F991
:102750002846BDE8F04701F0EBBA0000000802404F
:1027600028E1012070B505460F4814461E464288F0
:10277000954217D20288914214D243882A19521ED8
:102780009A4202DB4088401B84B22819401E82B264
:102790000B46284600F082FA21463046BDE87040DC
:1027A000FFF78EBF70BD00006A0000202DE9FE43D8
:1027B000054651480C46164641888D427DD2008818
:1027C00084427AD2DFF834814FF400770022394610
:1027D0004046FFF7EFF84FF4807900224946404623
:1027E000FFF7E8F82A2000F04FFA01223946404668
:1027F000FFF7E0F8012249464046FFF7DBF80022E8
:1028000049464046FFF7D6F8280A8DF800008DF8B3
:1028100001506D1C280A8DF802008DF80350012329
:10282000042269463648FFF7DBFC01224946404650
:10283000FFF7C0F8002239464046FFF7BBF80022F8
:1028400049464046FFF7B6F82B2000F01DFA01225A
:1028500039464046FFF7AEF8012249464046FFF7A9
:10286000A9F8002249464046FFF7A4F8200A8DF84F
:1028700004008DF80540641C200A8DF806008DF8D0
:1028800007400123042201A91D48FFF7A9FC0122EA
:1028900049464046FFF78EF8002239464046FFF78A
:1028A00089F8002249464046FFF784F82C2000F0C2
:1028B000EBF901223946404600E01BE0FFF77AF8C9
:1028C000012249464046FFF775F800224946404636
:1028D000FFF770F8300A8DF808008DF809600123C1
:1028E000022202A90648FFF77BFC01224946404626
:1028F000FFF760F8BDE8FE836A0000200008024090
:1029000028E101202DE9F041154C1646069F62880A
:102910001D46904221D2228891421ED2638882199C
:10292000521E9A4202DB6288121A96B223884A1912
:10293000521E9A4202DB2288521A95B24A19521E3E
:1029400093B28219521E92B200F0A8F905FB06F16B
:102950003846BDE8F041FFF7B3BEBDE8F0810000A6
:102960006A0000202DE9FC479946DDE90A78924685
:102970000D46044607EB47060AE0CDE900784B46D2
:1029800052462946641CFFF747FE05EB460085B218
:1029900020780028F1D1BDE8FC87000070B514460E
:1029A00002460E481D4643889A4216D20388994231
:1029B00013D206880B195B1EB34202DB0088401A53
:1029C00084B20819401E83B2104600F067F9214610
:1029D0002846BDE87040FFF773BE70BD6A00002056
:1029E000012291020148FEF7E5BF00000008024005
:1029F00070B5084C0546238862880021084600F01F
:102A00004DF96188208841432846BDE87040FFF7B2
:102A100057BE00006A00002010B5FFF7E1FF00F08C
:102A200023F900F005F9012000F08AF94FF47A70DB
:102A3000FEF7DAFECB2000F083F9392000F09CF994
:102A40002C2000F099F9002000F096F9342000F0D5
:102A500093F9022000F090F9CF2000F071F90020E6
:102A600000F08AF9C12000F087F9302000F084F9E5
:102A7000E82000F065F9852000F07EF9002000F0E4
:102A80007BF9782000F078F9EA2000F059F900206D
:102A900000F072F9002000F06FF9ED2000F050F91D
:102AA000642000F069F9032000F066F9122000F0BC
:102AB00063F9812000F060F9F72000F041F920204F
:102AC00000F05AF9C02000F03BF9232000F054F93F
:102AD000C12000F035F9102000F04EF9C52000F0BB
:102AE0002FF93E2000F048F9282000F045F9C720D2
:102AF00000F026F9862000F03FF9362000F020F99A
:102B0000482000F039F93A2000F01AF9552000F079
:102B100033F9B12000F014F9002000F02DF918204D
:102B200000F02AF9B62000F00BF9082000F024F993
:102B3000822000F021F9272000F01EF9F22000F099
:102B4000FFF8002000F018F9262000F0F9F8012025
:102B500000F012F9E02000F0F3F80F2000F00CF97B
:102B6000312000F009F92B2000F006F90C2000F0CC
:102B700003F90E2000F000F9082000F0FDF84E20C7
:102B800000F0FAF8F12000F0F7F8372000F0F4F840
:102B9000072000F0F1F8102000F0EEF8032000F01C
:102BA000EBF80E2000F0E8F8092000F0E5F800202E
:102BB00000F0E2F8E12000F0C3F8002000F0DCF8BB
:102BC0000E2000F0D9F8142000F0D6F8032000F011
:102BD000D3F8112000F0D0F8072000F0CDF8312014
:102BE00000F0CAF8C12000F0C7F8482000F0C4F88F
:102BF000082000F0C1F80F2000F0BEF80C2000F013
:102C0000BBF8312000F0B8F8362000F0B5F80F20FE
:102C100000F0B2F8112000F093F87820FEF7E4FD00
:102C2000292000F08DF8BDE81040002000F060B8C9
:102C300070B501220B4D940221462846FEF7BAFEDC
:102C4000C820FEF7D1FD0022A1102846FEF7B2FEF3
:102C5000C820FEF7C9FD21462846BDE87040012284
:102C6000FEF7A8BE0008024010B500F047F900F0DA
:102C7000E5F8BDE8104000224FF480710148FEF7EE
:102C800099BE00000008024001B501231A466946BA
:102C90000148FFF7A5FA08BD28E101202DE9F04120
:102CA00007461C4615460E462A2000F049F8380A09
:102CB00000F062F8F8B200F05FF8280A00F05CF863
:102CC000E8B200F059F82B2000F03AF8300A00F092
:102CD00053F8F0B200F050F8200A00F04DF8E0B2DE
:102CE00000F04AF8BDE8F0412C2000F029B80000BF
:102CF0002DE9F0410746362000F022F80120FEF7CA
:102D000073FD0E4CF0254FF4A0766FB1012F0DD05E
:102D1000022F0DD0032F05D15FF0E80000F02CF852
:102D200066802580BDE8F081482002E02820F5E794
:102D3000882000F021F865802680F3E76A000020F3
:102D400070B50C4D06464FF480740022214628468B
:102D5000FEF730FE002261002846FEF72BFE3046CB
:102D6000FFF792FF21462846BDE870400122FEF79A
:102D700021BE00000008024070B50B4C064601223F
:102D800051022046FEF716FEA515002229462046D0
:102D9000FEF710FE3046FFF777FF29462046BDE8D4
:102DA00070400122FEF706BE000802407FB50024F5
:102DB00016480094019402941349039401604FF45F
:102DC0008031C0E901140461047680F820400903D1
:102DD000C1620125C5614FF0C061C460816280F8A5
:102DE00030404561FEF70CFA08B1FEF72EF9CDE947
:102DF0000045694605480294FEF72AF9002801D0EB
:102E0000FEF723F97FBD00000020014080E0012093
:102E1000094808B5016841F480010160006800229A
:102E200000F48000009011463820FEF739FEBDE81E
:102E300008403820FEF726BE303802402DE9F04128
:102E400086B014216846FDF742FA2848002401683C
:102E500041F004010160016801F00401059101687D
:102E600041F080010160016801F080010591016875
:102E700041F001010160016801F001010591016863
:102E800041F0020101600068194F00F00200059056
:102E9000002220213846FEF78DFDDFF858804FF4E0
:102EA000E066002231464046FEF784FD4FF40050B4
:102EB00000901148CDE9010469464046FEF7A6FCA2
:102EC000202000900125CDE901546946384603943D
:102ED000FEF79CFC0320CDE90240CDE90065694680
:102EE0004046FEF793FC06B0BDE8F0813038024062
:102EF0000000024000080240000021100F4810B5F9
:102F00000D4901604FF48271416000218160C16010
:102F10004FF400720161C0E90512C16101624162B2
:102F200081620A21C162FFF7CBF8002803D0BDE817
:102F30001040FEF78AB810BD0038004028E101209B
:102F400010B586B0002417480094019402940394AD
:102F500004944FF080410594C0E9001440F6BB5141
:102F6000C0E90241802104618161FFF743FA08B1A1
:102F7000FEF76BF84FF48050009069460948FFF760
:102F800079FA08B1FEF761F82020CDE9040404A91C
:102F90000448FFF7E7F9002801D0FEF756F806B01D
:102FA00010BD000080E101200C4810B50A49016005
:102FB0004FF4E1314160002181600C22C160C0E921
:102FC00004128161C161FFF7C0FA002803D0BDE897
:102FD0001040FEF73AB810BD00440040C0E10120A7
:102FE000FEE7FEE77047000038B504461248134B71
:102FF0000068B0FBF3F04FF47A73584300906068B8
:10300000B0F5827F0DD10B46009200228021204630
:1030100000F016F870B1606D40F02000606503208C
:1030200038BD009830B1401E009020688068C043D1
:103030000006F6D5002038BD7C00002000366E0169
:103040002DE9F0411D4617460E460446DDF818806E
:1030500008E0681C06D0FEF7B3FCA0EB0800A8420D
:103060000BD255B12068806836EA000030D00020CD
:10307000B842EED10020BDE8F0812068416821F01F
:10308000E00141606068B0F5827F0BD1A068B0F5C7
:10309000004F02D0B0F5806F04D12068016821F0A4
:1030A00040010160A06AB0F5005F09D120680168A5
:1030B00021F4005101602068016841F40051016071
:1030C000012084F85100002084F850000320D2E74A
:1030D0000120CDE77047FEF779BC000030B593B012
:1030E00034216846FDF7F3F814210DA8FDF7EFF839
:1030F00020480025016841F080510160006800F01F
:10310000805012901C48016841F440410160006801
:10311000022400F4404012900120039010200490FB
:10312000009406940820CDE90750B420CDE90904A5
:103130000B9468460C94FEF721FE08B172B6FEE7C8
:10314000FEF7E0FC08B172B6FEE70DA90F2081E89A
:1031500031004FF4A05010904FF480501190052191
:103160000DA8FEF707FD002801D072B6FEE713B0E8
:1031700030BD000040380240007000400548016842
:1031800041F47001016003494FF00060803908602C
:103190007047000088ED00E0F0B50268254C264D30
:1031A000264E274F274B4FF0804CA04209D0604558
:1031B00007D0A84205D0B04203D0B84201D098420F
:1031C00004D122F0700E4A6842EA0E02A0421BD0DF
:1031D000604519D0A84217D0B04215D0B84213D0DC
:1031E000984211D0184DA8420ED0184DA8420BD0CD
:1031F000174DA84208D0174DA84205D0164DA84239
:1032000002D0164DA84203D122F44075CA682A4361
:103210004D6922F080022A4302608A68C2620A680D
:103220008262A04201D0984201D109690163012163
:103230004161F0BD00000140000400400008004072
:10324000000C0040000401400040014000440140E7
:103250000048014000180040001C004000200040D1
:1032600010B5846842EA032224F47F440A432243CF
:10327000826010BD826822F070020A4342F00701AA
:103280008160704710B5036A046A24F00104046287
:10329000846924F0F00444EA021423F00A020A4389
:1032A0008461026210BD10B5036A23F0100303624B
:1032B0008369046A23F4704343EA023224F0A003D2
:1032C00043EA01118261016210BD00002DE9F04165
:1032D000044600680169E26821F44051114301612C
:1032E0002169A068E26908436169114308432168C4
:1032F000CA6849F20C639A430243CA602068416974
:10330000A26921F4407111434161E06919276425E4
:103310003226B0F5004F354A354920684FF0000895
:1033200006D0884201D0904236D1FEF7CDFC35E080
:10333000884201D0904202D1FEF7C6FC01E0FEF7C0
:10334000B3FC61684A18A0FB070148EB0803FCF7CF
:1033500055FF0146B0FBF5F00201B1FBF5F06FF04F
:103360001803584301EB800006EBC000B0FBF5F0FA
:1033700000F0F80002EB4002B1FBF5F0584301EB1E
:10338000800006EBC000B0FBF5F000F007002168FC
:1033900010448860BDE8F081FEF786FC61688B0F01
:1033A0008A00A0FB0701FCF729FF0146B0FBF5F0FE
:1033B0006FF01802504301EB800006EB0010B0FBE9
:1033C000F5F000F0F002B1FBF5F002EB0012B1FBFA
:1033D000F5F06FF01803584301EB800006EB001086
:1033E000B0FBF5F000F00F00D1E700000014014041
:1033F00000100140FEE700000FB41CB5024600209B
:1034000007AC00290BD0491ECDE90021054B6A46C7
:103410002146069800F0EAF8009A002111701CBCC1
:103420005DF814FB1B3D00080907090E002804DBAA
:1034300000F1E02080F80014704700F00F0000F168
:10344000E02080F8141D704702E008C8121F08C170
:10345000002AFAD170477047002001E001C1121F15
:10346000002AFBD1704700002DE9FF5F82B00021E8
:10347000DDE90430020DDDF840B0034318D044F616
:103480001050A2F2FF3242431514119801281FD0A8
:10349000A5EB0B00401C5FEA000A4FF000064E4F00
:1034A000DFF83891B046504615D5CAF1000413E054
:1034B000119801244AA3012801D16FEA0B01029857
:1034C000119AC0E90031C0E9024206B0BDE8F09FA0
:1034D000CBF10000DFE704460021404A491842EBE7
:1034E0000450CDE9001012E0E00707D032463B4619
:1034F00040464946FCF7F6FE8046894632463B4642
:1035000010461946FCF7EEFE06460F466410002CE6
:10351000EAD1DDE90401DDE90023BAF1000F06DAA2
:10352000FCF7E0FE42464B46FCF7DCFE05E0FDF70B
:1035300003F942464B46FDF7FFF804460E460022CB
:10354000284BFDF781F903D84FF0FF30014607E023
:103550000022254B20463146FDF747F8FDF75BF981
:10356000102409E0002C0ADB0A220023FCF746FEA7
:10357000039B30321A55641E50EA0102F2D1641CDA
:10358000039AC4F111031444119A012A03D00122B1
:1035900008430DD10AE0084304D000204FF0110B7E
:1035A000119072E7A3EB0B056D1E0DE05B4504DD8A
:1035B0004FF0000205F1010504E003DA4FF00002CC
:1035C000A5F10105002AECD002981199C0E9023159
:1035D000C0E9004579E70000000014400000F03F1A
:1035E000300000000000F0430000E03F2DE9FF4FF5
:1035F00095B09B468946064600250FE2252877D1DF
:1036000000242746F84A0121059400E0044316F8F7
:10361000013F203B01FA03F01042F7D130782A280D
:1036200011D06FF02F033078A0F13002092A16D89C
:10363000059A44F0020402EB820203EB42021044BA
:10364000761C0590EFE759F8042B0592002A03DA5F
:10365000504244F40054059044F00204761C307843
:103660002E2816D116F8010F44F004042A280DD094
:103670006FF02F023078A0F13003092B09D807EB47
:10368000870302EB4303C718761CF3E759F8047B62
:10369000761C30786C280FD006DC4C2817D06828B0
:1036A0000DD06A2814D104E0742810D07A280FD1E4
:1036B0000DE044F400140AE044F4801401E044F402
:1036C00040147278824202D104F58014761C761C74
:1036D000307866280BD013DC582877D009DC002816
:1036E00075D04528F6D04628F4D047281AD19DE158
:1036F00018E0632835D0642879D0652812D195E187
:10370000702873D008DC6728F1D069286FD06E2844
:103710000DD06F2806D1B5E073282CD0752875D050
:10372000782874D05A46179990476D1C75E1C4F3F8
:103730000250022809D003280DD0D9F8001004281F
:103740000DD00D6009F1040967E1D9F80010EA17FE
:10375000C1E90052F6E7D9F800100D80F2E70D70CC
:10376000F0E719F8041B8DF8001000208DF8010017
:10377000EA46012003E059F804AB4FF0FF3061073F
:103780004FF0000102D40DE008F101018846B94272
:103790000FDA8045F8DB1AF808100029F4D108E0A8
:1037A00008F1010188468142FADB1AF80810002965
:1037B000F6D105985B46A0EB080721463846179AD4
:1037C00000F094FA284400EB080507E04DE029E1F9
:1037D0000DE01AF8010B5A4617999047B8F1010805
:1037E000F7D25B4621463846179A13E142E00A2297
:1037F0000092C4F302524FF0000A022A08D059F88E
:1038000004CB032A4FEAEC710AD00DE029E02AE04C
:1038100009F1070121F00702F2E802C1914609E02F
:103820000FFA8CFC4FEAEC71042A03D14FFA8CFC9E
:103830004FEAEC71002907DA0A460021DCF1000C9E
:1038400061EB02012D2202E0220504D52B228DF826
:103850000420012203E0E20701D02022F7E790468E
:1038600059E00A2102E010220DE010214FF0000A79
:1038700000910BE010224FF0000A44F004040827E6
:10388000009203E008224FF0000A0092C4F30252B3
:10389000022A05D059F804CB0021032A08D009E0F8
:1038A00009F1070121F00702F2E802C1914605E0A3
:1038B0001FFA8CFC042A01D10CF0FF0C4FF0000819
:1038C000220728D5702806D0009B83F0100353EA06
:1038D0000A0305D00EE040228DF80420012208E002
:1038E0005CEA010206D030228DF804208DF8050034
:1038F00002229046009B83F0080353EA0A030AD190
:103900005CEA010201D1620705D530228DF804205E
:103910004FF001087F1E582804D034A003900EA851
:1039200002900DE036A0F9E753466046009AFCF796
:1039300065FC84460398825C0298401E02900270E7
:103940005CEA0100F0D1029806A9081A00F1200AE9
:10395000600702D524F4803400E00127574502DDDA
:10396000A7EB0A0000E0002000EB0A010090059898
:103970004144401A0590E00306D45B462146179A5D
:10398000059800F0B3F90544002706E001A85A465F
:10399000C05D179990476D1C7F1C4745F6DBE0031F
:1039A0000CD55B462146179A059800F09FF905440F
:1039B00004E030205A46179990476D1C0099481E24
:1039C00000900029F5DC08E0029802995A46007838
:1039D000491C0291179990476D1CBAF10001AAF198
:1039E000010AF1DC65E100000928010030313233C1
:1039F000343536373839616263646566000000002B
:103A00003031323334353637383941424344454614
:103A10000000000000F058F90544761C30780028BA
:103A20007FF4ECAD19B02846BDE8F08F620700D4F2
:103A3000062709F1070222F0070CFCE80223E14601
:103A400003F000485FEA080C02D00FF2702C0DE082
:103A50005FEA045C02D50FF2682C07E05FEAC47CE1
:103A600002D00FF2602C01E0AFF2700C4FF0FF3883
:103A700023F00043CDF850C065280CD006DC452863
:103A800009D046281DD047283DD13DE0662818D0F2
:103A900067287ED138E00021112F01DB112000E0E2
:103AA000781CCDE9000106A90EA8FFF7DDFCDDE9D1
:103AB0000F010E9A03910021009207F1010A04916F
:103AC0004DE04FF000400097CDE9011006A90EA887
:103AD000FFF7CAFCDDE90F0203920E9B1199002249
:103AE000DDF80CA00093049211B9791C00EB010AD7
:103AF000B7EB0A0004D4C0F1FF3007F1010A0490CB
:103B0000AAEB0700019044E0012F00DA0127002111
:103B1000112F01DD112000E03846CDE9000106A992
:103B20000EA8FFF7A1FCDDE90F010E9A0391002119
:103B300004910092BA4621070CD40399514500DA4A
:103B40008A46BAF1010F05DD009AAAF10101515C24
:103B5000302908D0B84202DA10F1040F06DA012148
:103B6000CDE9011015E0AAF10101E9E7002805DC23
:103B7000049901440491AAEB000102E0411C514563
:103B800000DD8A460499401A401C01904FF0004025
:103B90000290200704D40198504501DBCDF8048041
:103BA00000208DF84F0002980DF14F07B0F1004F43
:103BB00025D02B200E9002984FF0020800280CDA36
:103BC000404202902D200E9007E00A210298FCF757
:103BD00043FC3031029007F8011DB8F10001A8F153
:103BE0000108F2DC02980028EFD1791E0E980870C7
:103BF000307800F0200040F0450007F8020D12A8D0
:103C0000C01B00F107081498007800B1012000EBF8
:103C10000A01019801EBE07105984144401A401EE9
:103C20000590E00306D45B462146179A059800F0FC
:103C30005DF805441498007818B15A4617999047D2
:103C40006D1CE00324D55B462146179A059800F0C9
:103C50004DF805441CE00498002807DBDDE903016A
:103C6000884203DD0098405C179901E017993020E5
:103C70005A469047049805F10105401C04900198AC
:103C8000401E019004D12E205A46179990476D1C72
:103C9000BAF10001AAF1010ADDDC05E017F8010B19
:103CA0005A46179990476D1CB8F10001A8F1010818
:103CB000F4DC5B462146179A0598ABE62D00000020
:103CC0002B000000200000002DE9F04104460025F3
:103CD0001E461746880404D405E039462020B04724
:103CE0006D1C641EF9D52846BDE8F0812DE9F04130
:103CF000044600251E469046C80301D5302700E043
:103D00002027880404D505E041463846B0476D1C9D
:103D1000641EF9D52846BDE8F0814A68002A06D01D
:103D20000A68531C0B6010704868401E486070475A
:103D300010B5002821D0114B0022001F196803E0A4
:103D4000814203D80A4649680029F9D152B1136863
:103D5000841A9C4204D1006818441060104602E0A6
:103D6000506000E0186039B102680B1A934203D129
:103D70000B681A4402604968416010BD8000002051
:103D80007CB50020FEF734FE0120FEF7B1FF0024D1
:103D90000125CDE900544FF6FF7633462246C9216E
:103DA00052A0FEF7DFFDCDE9005433460822C921B9
:103DB00053A0FEF7D7FDCDE9005433461022C921A8
:103DC00054A0FEF7CFFDCDE9005433462022C9218F
:103DD00055A0FEF7C7FDCDE9005433462822C9217E
:103DE00047A0FEF7BFFDCDE9005433463022C9217C
:103DF00048A0FEF7B7FDCDE9005433464022C92163
:103E00004EA0FEF7AFFDCDE9005433464822C9214C
:103E10003BA0FEF7A7FDCDE9005433465022C9214F
:103E20003CA0FEF79FFDCDE9005433467F22C92117
:103E300047A0FEF797FDCDE9005433468822C921FB
:103E400048A0FEF78FFDCDE9005433469122C921E9
:103E500049A0FEF787FDCDE900543346C822C921A9
:103E60004AA0FEF77FFDCDE900543346D822C92190
:103E70004BA0FEF777FDCDE900543346E822C92177
:103E80004CA0FEF76FFDCDE9005433466F22C821E8
:103E90004DA0FEF767FD3346F0220021C820FEF753
:103EA0007DFD3320FEF74CFF0020FEF765FF00206C
:103EB000FEF762FF0020FEF75FFFC820FEF75CFF01
:103EC0000020FEF759FF7820FEF756FF0023F0226E
:103ED00019460120FEF762FD02B01422BDE87040D1
:103EE00078214FF47843C820FEF73CBC562054524A
:103EF0004D533A2020202020202020560000000092
:103F00004D494E3A202020202020202020202056DD
:103F1000000000004D41583A202020202020202081
:103F2000202020560000000045663A202020202056
:103F300020202020202020560000000056393A2062
:103F400020202020202020202020205600000000BB
:103F50005448443A202020202020202020202025C2
:103F6000000000004D494E3A202020202020202033
:103F700020202025000000004D41583A202020201C
:103F8000202020202020202500000000636F757075
:103F9000757265733A2020202020202020204300C5
:103FA00063726575783A2020202020202020202070
:103FB0002020430053757274656E73696F6E3A20EA
:103FC0002020202020204300323330560000000003
:103FD0008AB0FDF703FD4FF4A056FC48CDE900067A
:103FE000FB4B02220C2102A8FCF779FDF948CDE930
:103FF0000006F74B022218330C2105A8FCF76FFDD1
:10400000FFF76CF8FEF71AFFFEF702FFFEF7CEFE91
:10401000FEF796FFFEF7C8FFFEF770FFEE48FEF7CB
:1040200017FA3246ED49EE48FDF760F9FEF7F4FC69
:10403000FFF7A6FEE54CE64D123C04F1080009909E
:10404000123D801C77100890801C4FF4A0684FF43C
:1040500020794FF4A07A05F10E0B01902878002802
:104060007DD00128FAD168780128F7D1DD4B0222F2
:1040700047F6FE71A3F520400096FCF7FDFD688829
:104080003346404201B2D84AD648FCF745FD334694
:10409000D64AD54902A8FCF713FC3346D44AD24984
:1040A00005A8FCF70DFC3B46D24AD04902A8FCF714
:1040B00007FC3B46D04ACD4905A8FCF701FC434626
:1040C000CE4ACC4902A8FCF7FBFB4346CC4AC9497F
:1040D00005A8FCF7F5FB4B46CA4AC84902A8FCF7FD
:1040E000EFFB4B46C84AC54905A8FCF7E9FB534618
:1040F000C64AC44902A8FCF7E3FB5346C44AC14977
:1041000005A8FCF7DDFBA023C24AC04902A8FCF7C2
:10411000D7FBC04AA023A03ABC4905A8FCF7D0FBB6
:104120005023BD4ABB4902A8FCF7CAFBBA4A502338
:10413000503AB84905A8FCF7C3FBA44A28238A3A99
:10414000B54902A8FCF7BCFBB34A2823A032B24908
:1041500005A8FCF7B5FB9D4A1423263A00E06BE066
:10416000A2F1640102A8FCF7ABFB984A14233A3A87
:10417000A2F1500105A8FCF7A3FB954A31460C3A81
:104180009948FCF741FD914A3946123A9848FCF7A4
:104190003BFDA21C41469848FCF736FD221D4946CE
:1041A0009748FCF731FDA21D51469748FCF72CFDBE
:1041B000A0219748099AFCF727FD96485021A0387E
:1041C000089AFCF721FD944828215038019AFCF701
:1041D0001BFD7F4A9048121F1421A030FCF714FDEC
:1041E0007A480BF1020214213A38FCF70DFD784AA7
:1041F00076480A3A14212638FCF706FD744A022153
:10420000921F901CFCF700FD714A7048083A072184
:104210001238FCF7F9FCA888411CA9800090B5F978
:104220000C30B5F90820B5F90A10B5F9060000F010
:1042300045F90020687011E768780128FBD1774BB9
:10424000022247F6FE7165480096FCF715FD688866
:104250003346404201B2724A7048FCF75DFC334677
:10426000704A6F4902A8FCF72BFB33466E4A6C4933
:1042700005A8FCF725FB3B466C4A6A4902A8FCF7F7
:104280001FFB3B466A4A674905A8FCF719FB4346F2
:10429000684A664902A8FCF713FB4346664A63492D
:1042A00005A8FCF70DFB4B46644A624902A8FCF7DF
:1042B00007FB4B46624A5F4905A8FCF701FB5346E2
:1042C000604A5E4902A8FCF7FBFA53465E4A5B4926
:1042D00005A8FCF7F5FAA0235C4A5A4902A8FCF7A6
:1042E000EFFA5A4AA023A03A564905A8FCF7E8FA83
:1042F000494A5023A03A554902A8FCF7E1FA454A39
:104300005023A032514905A8FCF7DAFA424A282383
:104310007832A2F58C7102A8FCF7D2FA3E4A282323
:104320005032A2F1F00105A8FCF7CAFA274A14237B
:104330004E3AA2F18C0102A8FCF7C2FA234A1423D8
:10434000623AA2F1780105A8FCF7BAFA204A314690
:104350000C3A3348FCF758FC1C4A3946123A3248AA
:10436000FCF752FCA21C41463148FCF74DFC221DD3
:1043700049463148FCF748FCA21D51463048FCF73D
:1043800043FCA0213048099AFCF73EFC2F485021FD
:10439000A038089AFCF738FC1E482821A030019A62
:1043A000FCF732FC0A4A1C48121F14215030FCF75B
:1043B0002BFC06480BF1020214216238FCF724FCA6
:1043C000034A02480A3A14214E3815E75490012056
:1043D0003A0000206AB8012080E10120920000200C
:1043E00080E0012092C8002092780020922C0120C9
:1043F00092180120925E01209254012092770120B0
:10440000927201201284012092810120528A01209F
:1044100012890120728D0120028F012092A00020BC
:10442000925000209204012092F00020924A012034
:1044300092400120926D012092680120127F01209C
:10444000927C0120D287012092860120328C0120AB
:10445000F0B50B30154D20F007010024144A0FE091
:1044600003688B420BD38B4205D95E1A4318476809
:10447000C3E9006700E04368136002C004E0021D66
:1044800010680028ECD12046002802D1286808B125
:104490000020F0BD064A07481060074A121A22F0B1
:1044A0000702C0E9002401202860D7E7840000202B
:1044B0008000002004E2012000E401202DE9FF43F8
:1044C0002DED028B87B0012204A909A8149FFCF7E7
:1044D0004BFB012203A90AA8FCF746FB012205A910
:1044E0000CA8FCF741FB012202A90BA8FCF73CFB3E
:1044F0009DED040ADFEDE60A029820EE208AFBF724
:104500007CFF9FEDE41B53EC112BFBF7EBFEFBF75D
:1045100087FF00EE100A8DED020ADDED050A9FED22
:10452000DF1ADF4C60EE818A94ED021AB4EEC18A84
:10453000F1EE10FA01DD84ED028A94ED031AB4EE77
:10454000C18AF1EE10FA01D284ED038A18EE100A46
:10455000D449884203DAA0880A30A08010E018EE1F
:10456000100AD149884203DA20880A30208007E007
:1045700018EE100ACD49884202DD60880A3060805A
:104580009DED031AC1EE201ADFEDC90AB5EEC08A0F
:1045900061EEA00AF1EE10FACDED030A03D1DFEDD2
:1045A000C50ACDED030A94ED081AF4EEC10AF1EE46
:1045B00010FA01DDC4ED080A94ED091AF4EEC10AFF
:1045C000F1EE10FA01D2C4ED090AD4ED060AB4EEF8
:1045D000E00AF1EE10FA01DD84ED060AD4ED070AD7
:1045E000B4EEE00AF1EE10FA01D284ED070A94ED80
:1045F000040AF4EEC08AF1EE10FA01DDC4ED048A7B
:1046000094ED050AF4EEC08AF1EE10FA01D2C4ED81
:10461000058A18EE100AFBF7F0FECDE90001A6A20C
:104620000721A748FEF7E8FE00250126CDE9006531
:104630004FF6FF7940F201184B462A464146A04802
:10464000FEF790F9E068FBF7D8FECDE900019AA2E9
:1046500007219B48FEF7D0FECDE900654B460822B6
:1046600041469748FEF77EF9A068FBF7C6FECDE904
:10467000000191A207219248FEF7BEFECDE9006538
:104680004B46102241468E48FEF76CF90398FBF723
:10469000B4FECDE900018BA207218948FEF7ACFEEC
:1046A000CDE900654B467F2241468548FEF75AF921
:1046B000606AFBF7A2FECDE9000182A207218048D3
:1046C000FEF79AFECDE900654B46882241467C48BC
:1046D000FEF748F9206AFBF790FECDE9000179A2C8
:1046E00007217748FEF788FECDE900654B46912209
:1046F00041467348FEF736F90298FBF77EFECDE996
:10470000000172A207216E48FEF776FECDE9006532
:104710004B464022F8216A48FEF724F9E069FBF78E
:104720006CFECDE9000169A207216548FEF764FE31
:10473000CDE900654B464822F8216148FEF712F9A1
:10474000A069FBF75AFECDE9000160A207215C4891
:10475000FEF752FECDE900654B465022F82158483D
:10476000FEF700F918EE900AFBF747FECDE90001CD
:1047700054A207215248FEF73FFECDE900654B46A3
:10478000202241464E48FEF7EDF86069FBF735FE02
:10479000CDE900014BA207214948FEF72DFECDE9E6
:1047A00000654B46282241464548FEF7DBF8206964
:1047B000FBF723FECDE9000142A207214048FEF7A6
:1047C0001BFECDE900654B46302241463C48FEF7D2
:1047D000C9F8A3883FA209213948FEF70DFECDE9AB
:1047E00000654FF488784B46C82241463448FEF7AE
:1047F000B9F8238837A209213148FEF7FDFDCDE93C
:1048000000654B46D82241462D48FEF7ABF8638839
:1048100030A209212A48FEF7EFFDCDE900654B469D
:10482000E82241462648FEF79DF818EE100AFBF7ED
:10483000E4FD9FED2A1B53EC112BFBF753FDFBF717
:10484000C3FDC0F1F00085B2C824B7FBF4F004FB4F
:1048500010700023F0221946FEF7A0F8B7FBF4F021
:1048600004FB10704FF478422946FDF79FFF372074
:10487000FEF766FA0020FEF77FFAB7FBF4F004FBC0
:104880001070FEF779FA07B0BDEC028BBDE8FF832C
:104890000080B6459A779CA223B9084000001244D4
:1048A000000000200000B84100004F4300007D439D
:1048B0000000C8420000000025352E3066000000D0
:1048C000880000202530352E316600002530362E38
:1048D000316600002530366400000000A857CA3257
:1048E000C4B1E03F0000000000005C0000000000D8
:1048F000060006000000287C287C28005C54FE543A
:10490000740044201008440028545420500006002D
:10491000000000003844000000004438000000009F
:1049200002070200000010107C101000C000000000
:104930000000101010101000400000000000601077
:104940000C0000007C64544C7C00487C400000005B
:10495000645454544800445454546C003C20702017
:1049600020005C54545424007C54545474000404B7
:1049700064140C007C5454547C005C5454547C00EB
:10498000440000000000C4000000000010284400A3
:1049900000002828282828004428100000000804C7
:1049A000540800007C4454545C007C2424247C0083
:1049B0007C5454546C007C44444444007C4444443F
:1049C00038007C54545444007C14141404007C4477
:1049D000445474007C1010107C0044447C44440017
:1049E000604040447C007C10102844007C404040E3
:1049F00040007C0810087C007C0810207C003844B3
:104A0000444438007C14141408003C2464243C0002
:104A10007C14141468005C545454740004047C0422
:104A200004007C4040407C000C3040300C003C4096
:104A300030403C004428102844000C1060100C004A
:104A40004464544C44007C44000000000C1060009E
:104A50000000447C00000000000100010000404014
:104A6000404040400001000000007C2424247C00E1
:104A70007C5454546C007C44444444007C4444447E
:104A800038007C54545444007C14141404007C44B6
:104A9000445474007C1010107C0044447C44440056
:104AA000604040447C007C10102844007C40404022
:104AB00040007C0810087C007C0810207C003844F2
:104AC000444438007C14141408003C2464243C0042
:104AD0007C14141468005C545454740004047C0462
:104AE00004007C4040407C000C3040300C003C40D6
:104AF00030403C004428102844000C1060100C008A
:104B00004464544C4400107C440000006C000000DD
:104B10000000447C100000000201020100000000BF
:104B2000000000000006101600061016000000002D
:104B3000000000000102030406070809000000004D
:104B400001020304644B00080000002088000000FC
:104B500048340008EC4B00088800002078E701008A
:104B600058340008000000000000000000000000B1
:104B70000000F043000000000000F04300000000CF
:104B80000000F04300000000000048440200002044
:104B90000000000000000000000000000000450EC2
:104BA0004F3F24605B2809E363EF7A0C8503F5FB34
:104BB00013009D00DCFFDCFF63FF13000B04850383
:104BC00086F363EFF41C5B28DC9F4F3FBBF1F000E2
:104BD0004001000001000000100000000000000083
:0C4BE0000024F4000000000000000000B1
:04000005080001C529
:00000001FF
